:020000040000FA
:1000000089EF01F0F76A140FF66E000EF72209006F
:10001000F5501200280C0106F76A280FF66E000E44
:10002000F7220900F55012000D0A53656C656369EB
:100030006F6E6520726F746163616F3A0D0A000024
:10004000F76A500FF66E000EF7220900F550120005
:100050002020202031292030200D0A00F76A6C0F63
:10006000F66E000EF7220900F55012002020202025
:100070003229203230200D0A0000F76A8A0FF66E0E
:10008000000EF7220900F55012002020202033290D
:10009000203530200D0A0000F76AA80FF66E000E1A
:1000A000F7220900F55012002020202034292038A2
:1000B00030200D0A0000F76AC60FF66E000EF72218
:1000C0000900F55012002020202035292031303041
:1000D000200D0A00F76AE40FF66E000EF722090001
:1000E000F55012000C204D4F544F52204343000056
:1000F000F76A000FF66E010EF7220900F5501200A4
:1001000056454C4F4349444144453D257500EA6AF4
:10011000100EE96EEF500DE0060E016E006A002E23
:10012000FED7012EFBD77B0E006E002EFED7EF2EE2
:10013000F3D7000C1738F00B006E0F0E811400106F
:10014000816E00008180030E006E002EFED781902C
:10015000000CF00E936E81840000818000008138D5
:100160000F0B176E81900000818000D000D000003E
:1001700081380F0B166E8190000E936E1738006E4B
:10018000F00E001600501610016EC9EF00F08192BB
:10019000E0D701C016F001BEFBD714A0819214B0C5
:1001A000818200008194000081901538166E0F0E38
:1001B000161616C017F0BEDF15500F0B166E176E11
:1001C000B9DF000C000E936E8192819481900F0E26
:1001D000106E9DDF010E0C6E0C50030808E3030E39
:1001E000176EA8DF050E106E92DF0C2AF5D7020EEF
:1001F000176EA0DF0C6A0C5003080EE3036A0C5064
:10020000F2CF0DF0F29EFEDE0DBEF28E0E6E146A7F
:10021000156EBDDF0C2AEFD79DEF01F0112C01D038
:1002200003D0400E126E01D0126A010E105C12262D
:1002300012508009136E146A156EA9DF000C0F505E
:100240000C0A05E0060A0BE0020A0FE013D0146A5C
:10025000010E156E9CDF020E106E59DF11D0010EDB
:10026000106E020E116EDADF0BD0146A100E156ECE
:100270008EDF06D0010E146E0FC015F088DF00D09F
:10028000000C1050016A0F5C03E20FC000F00CD0AC
:10029000006A080E116E0F3600361050005CD8B0A0
:1002A000006E0136112EF7D7000C01500DC00FF073
:1002B000640E106EE6DF00C00DF00150300E07E155
:1002C0000EA20CD00EB60AD00EB8200E03D00E9699
:1002D0000E980E80012601C00FF0B1DF0DC00FF0A7
:1002E0000A0E106ECEDF00C00DF00150300E06E198
:1002F0000EB608D00EA006D00EB8200E012601C002
:100300000FF09DDF300E0D260DC00FF098DF0EEFC1
:1003100002F0F86AD09EEA6AE96AB886080EAF6E03
:10032000020EB06EA60EAC6E900EAB6EC150C00B3E
:100330000F09C16E070EB46E45D70C6A0C506CDE07
:100340000C2A006E00509EA8FED7AD6E160E0C5CF7
:10035000F5E10C6A0C5074DE0C2A006E00509EA869
:10036000FED7AD6E0B0E0C5CF5E10C6A0C5076DE20
:100370000C2A006E00509EA8FED7AD6E0C0E0C5CD1
:10038000F5E10C6A0C5079DE0C2A006E00509EA834
:10039000FED7AD6E0C0E0C5CF5E10C6A0C507CDEE9
:1003A0000C2A006E00509EA8FED7AD6E0C0E0C5CA1
:1003B000F5E10C6A0C507FDE0C2A006E00509EA8FE
:1003C000FED7AD6E0D0E0C5CF5E1000E0509CA6E90
:1003D000F90ECB6E07C0BEFF010E106E116E1EDF50
:1003E0000C6A0C5077DE0C2A006E0F6E28DF0A0EA6
:1003F0000C5CF7E1010E106E020E116E0FDF0C6A3D
:100400000C5076DE0C2A006E0F6E19DF0B0E0C5CA2
:10041000F7E108C00DF01B0E0E6E47D79EAAFED75F
:10042000AECF06F006503008F9E206503608F6E383
:1004300094948B940C0EBD6EB76A310E065CFB0F64
:1004400029E2050F4CEF02F0076A0B6A0A6A096A93
:10045000086A20D0320E076E0B6A0A6A096A140E07
:10046000086E18D07D0E076E0B6A0A6A096A320E92
:10047000086E10D0C80E076E0B6A0A6A096A500E21
:10048000086E08D0FA0E076E0B6A0A6A096A640ED3
:10049000086E00D052D70300E824F76AF736B30F8E
:1004A000F66E040EF7220A00F550FA6E0800F550B9
:0C04B000F96E48045404640474048404CD
:020000040030CA
:0E000000000C1E1E008381000FC00FE00F4099
:00000001FF
;PIC18F4550
