:020000040000FA
:10000000FFEF01F0F76A140FF66E000EF7220900F9
:10001000F5501200280C0106F76A280FF66E000E44
:10002000F7220900F550120053454E534F525F54CA
:10003000454D50455241545552410000F76A4C0F0E
:10004000F66E000EF7220900F55012004C4D3335C4
:100050000000F76A620FF66E000EF7220900F550F5
:1000600012000C2054454D50455241545552410008
:10007000F76A800FF66E000EF7220900F5501200A5
:100080002020202020202025752025634300EA6AB7
:10009000110EE96EEF500DE0060E016E006A002EA3
:1000A000FED7012EFBD77B0E006E002EFED7EF2E63
:1000B000F3D7000C1838F00B006E0F0E83140010ED
:1000C000836E00008380030E006E002EFED78390A7
:1000D000000CF00E956E838400008380000083384E
:1000E0000F0B186E83900000838000D000D00000BA
:1000F00083380F0B176E8390000E956E1838006EC4
:10010000F00E001600501710016E89EF00F0839278
:10011000E0D701C017F001BEFBD715A0839215B040
:10012000838200008394000083901638176E0F0EB0
:10013000171617C018F0BEDF16500F0B176E186E8B
:10014000B9DF000C000E956E8392839483900F0E9E
:10015000116E9DDF010E0D6E0D50030808E3030EB6
:10016000186EA8DF050E116E92DF0D2AF5D7020E6C
:10017000186EA0DF0D6A0D5003080EE3036A0D50E0
:10018000F2CF0EF0F29E3EDF0EBEF28E0F6E156ABB
:10019000166EBDDF0D2AEFD713EF02F0122C01D03F
:1001A00003D0400E136E01D0136A010E115C1326AA
:1001B00013508009146E156A166EA9DF000C1050DA
:1001C0000C0A05E0060A0BE0020A0FE013D0156ADC
:1001D000010E166E9CDF020E116E59DF11D0010E5A
:1001E000116E020E126EDADF0BD0156A100E166E4B
:1001F0008EDF06D0010E156E10C016F088DF00D01D
:10020000000C8E0E006E0EC001F00DC002F0036AED
:10021000015209E102C001F0026A080E005E0152BB
:1002200002E1006A08D0D89001BE04D0023601363F
:100230000006F9D7019E4CEF02F00D50D8B471D0F2
:10024000006E1150D8B46DD0002604E3810E002654
:1002500068E204D07F0E005E64E363E00EC015F038
:100260001250151A0E8E128E10501402F4CF17F081
:100270000F501302F4CF03F0F3CF16F01402F35033
:100280001726F4501622000E032210501302F350CA
:100290001726F4501622000E026A032202220E5084
:1002A0001402F3501626F4500322000E02220E50C0
:1002B0001302F3500326F4500222000E016A0122B9
:1002C00010501202F3501626F4500322000E0222A0
:1002D00001220F501202F3500326F4500222000EA6
:1002E00001220E501202F3500226F4500122002A7D
:1002F00001BE05D016360336023601360006000E62
:1003000016AE0AD0032A02220122015005E1025052
:1003100003E1035001E1002A15BE018E15AE019ED6
:1003200004D0006A016A026A036A68EF02F00D50A5
:10033000B6080D6E036A0EC011F00E8ED8900E3204
:100340000F32103203320232013200320D2EF6D754
:1003500011AE0BD0001E011E021E031E002AD8B4CF
:10036000012AD8B4022AD8B4032A71EF02F011503E
:10037000016A105C03E210C000F00CD0006A080EA5
:10038000126E103600361150005CD8B0006E013687
:10039000122EF7D7000C01500EC010F0640E116E33
:1003A000E6DF00C00EF00150300E07E10FA20CD0C6
:1003B0000FB60AD00FB8200E03D00F960F980F80FB
:1003C000012601C010F0FBDE0EC010F00A0E116E07
:1003D000CEDF00C00EF00150300E06E10FB608D09F
:1003E0000FA006D00FB8200E012601C010F0E7DEE6
:1003F000300E0E260EC010F0E2DE9BEF02F0F86A1F
:10040000D09EEA6AE96AB886080EAF6E020EB06E38
:10041000A60EAC6E900EAB6EC150C00B0F09C16E34
:10042000070EB46E8FD6010E116E126EB7DE0D6A16
:100430000D50F2DD0D2A006E106EC1DE120E0D5C45
:10044000F7E1010E116E020E126EA8DE0D6A0D505C
:10045000F5DD0D2A006E106EB2DE040E0D5CF7E1C4
:10046000640E116E14DEC150C00B0E09C16EC08047
:10047000C082C084C08EC280000E016EC250C30B09
:100480000110C26EC282C2B2FED7C4CF03F0C3CF86
:100490000DF0C4CF0EF0B5D603C008F002C007F0CF
:1004A00001C006F000C005F00A0E116EF0DD08C0B4
:1004B00010F007C00FF006C00EF005C00DF07D0E65
:1004C000146E3E0E136E7A0E126E7D0E116EB5D640
:1004D00003C010F002C00FF001C00EF000C00DF01C
:1004E00026D703C00CF002C00BF001C00AF000C018
:1004F00009F0010E116E126E51DE0D6A0D50A9DD6C
:100500000D2A006E106E5BDE0D0E0D5CF7E1010E24
:10051000116E020E126E42DE0D6A0D50A9DD0D2A1B
:10052000006E106E4CDE070E0D5CF7E109C00EF098
:100530001B0E0F6E30D7200E106E41DEDF0E106ED8
:100540003EDE430E106E3BDE040E0D6EFA0E116E93
:0A0550009EDD0D2EFBD796D70300A9
:020000040030CA
:0E000000000C1E1E008381000FC00FE00F4099
:00000001FF
;PIC18F4550
