:0400000026EF04F0F3
:08000800046ED8CF05F0E0CF33
:1000100006F00001E9CF0CF0EACF07F0E1CF08F0DD
:10002000E2CF09F0D9CF0AF0DACF0BF0F3CF12F01C
:10003000F4CF13F0FACF14F000C00EF001C00FF0AF
:1000400002C010F003C011F0F2AA2AEF00F0F2B4DF
:100050004BEF00F00EC000F00FC001F010C002F036
:1000600011C003F00CC0E9FF07C0EAFF078E08C00B
:10007000E1FF09C0E2FF0AC0D9FF0BC0DAFF12C0DE
:10008000F3FF13C0F4FF14C0FAFF045006C0E0FFF2
:1000900005C0D8FF1000D650D7CF03F0830F346EC1
:1000A000000ED720D76E34C0D6FF202A212AF29422
:1000B0002AEF00F00C54454D502E20444553454A3C
:1000C000414441000D0A4449474954452054454D97
:1000D000504552415455524120444553454A4144AC
:1000E00041204E4F205445434C41444F204D4154F4
:1000F00052494349414C0D0A00000C414A555354A2
:1001000045204F4B2121210054454D5020434F4E57
:1001100046203D20256400000D0A414A55535445B0
:10012000204F4B21212100000D0A54454D504552CE
:10013000415455524120434F4E4649475552414440
:1001400041203D20256400000C54454D502052456F
:10015000414C203D20256C75000054454D502043F6
:100160004F4E46203D20256400000D0A54454D5059
:1001700045524154555241205245414C203D202585
:100180006C7500000D0A54454D504552415455526E
:100190004120434F4E4649475552414441203D205E
:1001A00025640000EA6A2E0EE96EEF500DE0020EA3
:1001B000016E006A002EFED7012EFBD7970E006E4F
:1001C000002EFED7EF2EF3D71200956A33C08CFFB6
:1001D00096928D8296928D921200956A8C6A969074
:1001E0008D9096928D920F0E2E6EDCDF010E246E96
:1001F0002450030808E3300E336EE7DF050E2E6E41
:10020000D1DF242AF5D7380E336EDFDF010E336ECF
:10021000DCDF010E2E6EC6DF0C0E336ED6DF060E4F
:10022000336ED3DF45EF04F096908D90315202E1AA
:100230008D9001D08D809690420E006E002EFED7DC
:10024000000096928D9232C033F0BFDF12002F2C47
:1002500001D003D0C00E306E02D0800E306E010E81
:100260002E5C3026316A30C032F0DEDF12002D50B5
:100270000C0A07E0060A0DE0070A0BE0050A0FE08A
:1002800013D0316A010E326ECFDF020E2E6E8ADF7E
:1002900010D0010E2E6E020E2F6ED9DF0AD0316AF9
:1002A000100E326EC1DF05D0010E316E2DC032F05E
:1002B000BBDF12000900F5520CE0F6CF24F0F7CFB7
:1002C00025F0F5CF2DF0D3DF24C0F6FF25C0F7FFD2
:1002D000F1D712000900F5520DE0F6CF24F0F7CF68
:1002E00025F0F5509EA8FED7AD6E24C0F6FF25C0C0
:1002F000F7FFF0D71200200E256E939C8A8C939AFC
:100300008A8A93988A98938081B002D0310E256EA4
:10031000938281B202D0340E256E938481B402D0D0
:10032000370E256E938681B602D02A0E256E9398DD
:100330008A88939A8A9A938081B002D0320E256E71
:10034000938281B202D0350E256E938481B402D09F
:10035000380E256E938681B602D0300E256E939AA4
:100360008A8A939C8A9C938081B002D0330E256E3A
:10037000938281B202D0360E256E938481B402D06E
:10038000390E256E938681B602D0230E256E939C7E
:100390008A8C25C001F01200AEDF01C024F0245089
:1003A000200810E017B00ED017801650245C0AE029
:1003B0000A0E2E6EF7DE9FDF2450015C03E124C09D
:1003C00001F001D017906FEF04F08E0E006E25C083
:1003D00001F024C002F0036A015209E102C001F0F9
:1003E000026A080E005E015202E1006A08D0D8904D
:1003F00001BE04D0023601360006F9D7019EA6EFF1
:1004000004F02450D8B471D0006E2850D8B46DD008
:10041000002604E3810E002668E204D07F0E005E11
:1004200064E363E025C02CF029502C1A258E298E18
:1004300027502B02F4CF2EF026502A02F4CF03F0DF
:10044000F3CF2DF02B02F3502E26F4502D22000E68
:10045000032227502A02F3502E26F4502D22000E9C
:10046000026A0322022225502B02F3502D26F4505B
:100470000322000E022225502A02F3500326F450D4
:100480000222000E016A012227502902F3502D2674
:10049000F4500322000E0222012226502902F350BA
:1004A0000326F4500222000E012225502902F350A7
:1004B0000226F4500122002A01BE05D02D36033653
:1004C000023601360006000E2DAE0AD0032A0222A3
:1004D0000122015005E1025003E1035001E1002A2D
:1004E0002CBE018E2CAE019E04D0006A016A026A05
:1004F000036AB7EF04F08E0E006E2450005E25C034
:1005000002F026C001F0028E005209E0D89002529B
:1005100002E1015204E002320132002EF7D725AE8B
:1005200005D0011E021E012AD8B4022AC0EF04F031
:100530000900F6CF25F0F7CF26F0F5CF2DF097DEA6
:1005400025C0F6FF26C0F7FF242EF2D712002B504D
:10055000016A2A5C03E22AC000F00CD0006A080E8F
:100560002C6E2A3600362B50005CD8B0006E013657
:100570002C2EF7D71200200E25A8300E266E24C090
:1005800000F024AE08D0001E002A00C024F02D0E7A
:10059000266E258E2580015024C02AF0640E2B6E15
:1005A000D6DF00C024F0300E0124276E24C02AF0CC
:1005B0000A0E2B6ECCDF300E0024296E300E012483
:1005C000286E26C000F0300E275C04E0258225BE90
:1005D000258412D026C027F0200E266E300E285C0F
:1005E00004E0258025BE258207D0D8A4258004E11B
:1005F00027C028F0200E276E25B405D025B206D0DE
:1006000025B007D009D026C02DF031DE27C02DF04F
:100610002EDE28C02DF02BDE29C02DF028DE1200A2
:100620000900F6CF25F0F7CF26F0F5509EA8FED7AB
:10063000AD6E25C0F6FF26C0F7FF242EF1D71200BD
:10064000200E25A8300E266E24C000F024AE08D05F
:10065000001E002A00C024F02D0E266E258E258057
:10066000015024C02AF0640E2B6E71DF00C024F00C
:10067000300E0124276E24C02AF00A0E2B6E67DF8D
:10068000300E0024296E300E0124286E26C000F0A2
:10069000300E275C04E0258225BE258412D026C0BA
:1006A00027F0200E266E300E285C04E0258025BE43
:1006B000258207D0D8A4258004E127C028F0200E89
:1006C000276E25B405D025B207D025B009D00CD0AF
:1006D00026509EA8FED7AD6E27509EA8FED7AD6EC1
:1006E00028509EA8FED7AD6E29509EA8FED7AD6EAD
:1006F0001200EACF2CF0E9CF2BF02538F009276E55
:100700002726E20F286E320F2A6E25500F0B28265F
:1007100028262A26E90F296E2926292624380F0B98
:1007200029262A2629362A362A1E2A3624500F0B35
:100730002A262736070E266E0A0E29062A26FDE3EC
:1007400028062926FDE327062826FDE32606272678
:10075000FDE3EA6A260EE96E070E2B142B9CE926B0
:100760002A0EE95CD8B42B8CEF50006E08E12BBC4C
:1007700006D02BB813D02BB602D0200E03D02B8678
:100780002B98300E0026EACF25F0E9CF24F000C0E8
:100790002DF06DDD25C0EAFF24C0E9FFEE502BAC43
:1007A000DFD721EF05F0EACF2CF0E9CF2BF0253889
:1007B000F009276E2726E20F286E320F2A6E255089
:1007C0000F0B282628262A26E90F296E29262926F6
:1007D00024380F0B29262A2629362A362A1E2A369D
:1007E00024500F0B2A262736070E266E0A0E2906DE
:1007F0002A26FDE328062926FDE327062826FDE311
:1008000026062726FDE3EA6A260EE96E070E2B145C
:100810002B9CE9262A0EE95CD8B42B8CEF50006E95
:1008200008E12BBC06D02BB80CD02BB602D0200E82
:1008300003D02B862B98300E002600509EA8FED7A2
:10084000AD6EEE502BACE6D744EF05F0F86AD09EC3
:10085000078EB8960C0EAF6EA20EAC6E900EAB6EFD
:100860001E6A1F6A206A216A226AC150C00B0F09E2
:10087000C16E070EB46EC50ED56ED76A830ED66EE6
:10088000C00EF212F28AF19EA8D4000E0509CA6EBB
:10089000F90ECB6EC150C00B0B09C16EC050C00B1E
:1008A0000709C06EC08EC2800C0E016EC250C30B11
:1008B0000110C26E1790640E236E010E2E6E2F6E05
:1008C000C6DCB40EF66E000EF76EF4DCC40EF66EE7
:1008D000000EF76EFFDC2250010820E35DD501C059
:1008E00016F017A019D0010E2224246E2E6E020ECF
:1008F0002F6EADDC16C02DF0BADC16509EA8FED7C8
:10090000AD6E036A22501C0FE96E000E0320EA6EE2
:10091000300E165CEF6E222A1790C9D022500108C3
:10092000D8B0C5D01C500A0DF3501D241E6EC282D3
:10093000C2B2FED7C3CF18F0C4CF19F00A0E2E6E84
:1009400031DC19C025F018C024F03FD503C027F0D2
:1009500002C026F001C025F000C024F07D0E2B6EF1
:100960003E0E2A6E7A0E296E7D0E286E4AD503C081
:1009700027F002C026F001C025F000C024F0BBD54E
:1009800002C01BF001C01AF01B5203E11E501A5C9A
:1009900041E3BB6A94928B920C0EBA6E21503208DE
:1009A0001BE1010E2E6E2F6E52DCFA0EF66E000E5B
:1009B000F76E80DC010E2E6E020E2F6E48DC080EE4
:1009C000F66E010EF76E0C0E246EB2DD1EC024F022
:1009D000180E256ED0DD216A2050C4081AE1180EC9
:1009E000F66E010EF76E76DC280EF66E010EF76ECF
:1009F0001C0E246E15DE1EC024F0180E256E20DE9F
:100A0000206A040E246EFA0E2E6ED2EC00F0242E14
:100A1000FAD74DD01AC01FF02150320824E1010E40
:100A20002E6E2F6E14DC480EF66E010EF76E0D0E54
:100A3000246E7EDD100EE96E1BC025F01AC024F076
:100A400058D6010E2E6E020E2F6E01DC5A0EF66E77
:100A5000010EF76E0C0E246E6BDD1EC024F0180E16
:100A6000256E89DD216A2050C4081BE16A0EF66EEE
:100A7000010EF76E150E246ED3DD100EE96E1BC04D
:100A800025F01AC024F08FD6840EF66E010EF76E94
:100A90001C0E246EC5DD1EC024F0180E256ED0DDA0
:100AA000206A23C0BBFF94928B920C0EBA6E13D7B0
:020AB000030041
:020000040030CA
:0E00000027CC3E1E0087A1000FC00FE00F406E
:00000001FF
;PIC18F4550
;CRC=4D93  CREATED="16-ago-19 16:53"
