:10000000C6EF00F041443320256C7500EA6A0A0E01
:10001000E96EEF500DE0020E016E006A002EFED771
:10002000012EFBD7970E006E002EFED7EF2EF3D7D2
:10003000EFEF00F00900F6CF0BF0F7CF0CF0F55022
:100040009EA8FED7AD6E0BC0F6FF0CC0F7FF0A2EC0
:10005000F1D7FCEF00F0D8B203D0EA6A1E0EE96EC9
:10006000006A016A026A036A1E6A1F6A206A216ABC
:100070001D501C101B101A102CE0200E226ED89060
:1000800016361736183619361E361F3620362136E4
:100090001D50215C08E11C50205C05E11B501F5CD9
:1000A00002E11A501E5C0FE31A501E5E1B50D8A0CE
:1000B0001B3C1F5E1C50D8A01C3C205E1D50D8A0CD
:1000C0001D3C215ED8800036013602360336222ED2
:1000D000D6D71EC0EFFF1FC0ECFF20C0ECFF21C031
:1000E000ECFF1200E9500E6E3B0E156E9A0E146E68
:1000F000CA0E136E126A0A0E106ED882EA6A0A0ECF
:10010000E96E0DC019F00CC018F00BC017F00AC052
:1001100016F015C01DF014C01CF013C01BF012C067
:100120001AF099DF015000520FE11050010A0CE063
:100130000E500BE00F0B105C01E00DE20EBE0BD079
:100140000EBC03D0200E02D00E6A300E00260050E6
:100150009EA8FED7AD6ED89215C019F014C018F045
:1001600013C017F012C016F01D6A1C6A1B6A0A0E33
:100170001A6E71DF03C015F002C014F001C013F055
:1001800000C012F0102EB9D707EF01F0F86AD09E28
:10019000B8960C0EAF6EA20EAC6E900EAB6EC15048
:1001A000C00B0F09C16E070EB46EC150C00B0B0916
:1001B000C16EC050C00B0709C06EC08EC2800C0E4D
:1001C000016EC250C30B0110C26EC282C2B2FED712
:1001D000C3CF04F0C4CF05F00A0E0A6E17D7096A20
:1001E000086A05C007F004C006F0040EF66E000EA3
:1001F000F76E040E0A6E1ED7410EE96E09C00DF0AF
:1002000008C00CF007C00BF006C00AF06BD7DDD7B2
:020210000300E9
:020000040030CA
:0E00000027CC3E1E0087A1000FC00FE00F406E
:00000001FF
;PIC18F4550
;CRC=1869  CREATED="15-ago-19 13:08"
