:020000040000FA
:100000001AEF02F0F76A140FF66E000EF7220900DD
:10001000F550120054455354452044452046554E52
:1000200043494F4E414D454E544F20444F20544577
:10003000434C41444F0A0D00F76A480FF66E000E1C
:10004000F7220900F55012003D3D3D3D3D3D3D3D4F
:100050003D3D3D3D3D3D3D3D3D3D3D3D3D3D3D3DD0
:100060003D3D3D3D3D0A0D00F76A780FF66E000EEE
:10007000F7220900F55012000A0D506C61636120EF
:10008000646520646573656E766F6C76696D656E08
:10009000746F204143455049432034300D0A00001D
:1000A000F76AB00FF66E000EF7220900F550120045
:1000B0000A0D4D6963726F636F6E74726F6C616469
:1000C0006F722050494320313846343535303B0D6E
:1000D0000A00F76AE20FF66E000EF7220900F550EB
:1000E00012004261756472617465203D20393630BA
:1000F00030204250533B0D0A0000F76A0A0FF66E9B
:10010000010EF7220900F550120044617461426942
:100110007473203D20382E0D0A00F76A2A0FF66E00
:10012000010EF7220900F55012000D0A46617A20EF
:1001300061206C6569747572612064612074656307
:100140006C61206469676974616461206E6F2074FA
:1001500065636C61646F0D0A0000F76A6A0FF66EE2
:10016000010EF7220900F55012006D6F7374726171
:100170006E646F206E6F20446973706C61792065C6
:10018000206E612073657269616C2E0D0A00F76A3A
:100190009E0FF66E010EF7220900F55012000C209A
:1001A0002020504943313846343535300000F76A55
:1001B000BE0FF66E010EF7220900F55012000A205C
:1001C0002020205465636C61646F2E00F76ADC0F99
:1001D000F66E010EF7220900F55012000C00F76AC6
:1001E000EE0FF66E010EF7220900F5501200446979
:1001F000676974653A0A0000F76A080FF66E020E26
:10020000F7220900F5501200202020202020202075
:1002100020202020202020200000EA6A0A0EE96E1B
:10022000EF500DE0020E016E006A002EFED7012E87
:10023000FBD7970E006E002EFED7EF2EF3D7000CE3
:10024000956A0FC08CFF96928D8296928D92000CCB
:10025000956A8C6A96908D9096928D920F0E0A6E8A
:10026000DCDF010E086E0850030808E3300E0F6E45
:10027000E7DF050E0A6ED1DF082AF5D7380E0F6EBC
:10028000DFDF010E0F6EDCDF010E0A6EC6DF0C0E23
:100290000F6ED6DF060E0F6ED3DF2EEF02F09690B4
:1002A0008D900D5202E18D9001D08D809690420E7E
:1002B000006E002EFED7000096928D920EC00FF0B9
:1002C000BFDF000C0B2C01D003D0C00E0C6E02D08F
:1002D000800E0C6E010E0A5C0C260D6A0CC00EF02E
:1002E000DEDF000C09500C0A07E0060A0DE0070AE1
:1002F0000BE0050A0FE013D00D6A010E0E6ECFDF82
:10030000020E0A6E8ADF11D0010E0A6E020E0B6E0B
:10031000D9DF0BD00D6A100E0E6EC1DF06D0010EB4
:100320000D6E09C00EF0BBDF00D0000C200E096E70
:10033000939E8A8E939C8A8C939A8A8A93988A98A1
:10034000938081B002D0310E096E938281B202D0C7
:10035000340E096E938481B402D0370E096E9386F1
:1003600081B602D02A0E096E93988A88939A8A9A47
:10037000938081B002D0320E096E938281B202D096
:10038000350E096E938481B402D0380E096E9386BF
:1003900081B602D0300E096E939A8A8A939C8A9C09
:1003A000938081B002D0330E096E938281B202D065
:1003B000360E096E938481B402D0390E096E93868D
:1003C00081B602D0230E096E939C8A8C939E8A9EDE
:1003D000938081B002D0410E096E938281B202D027
:1003E000420E096E938481B402D0430E096E938647
:1003F00081B602D0440E096E939E8A8E09C001F028
:10040000000C94DF01C008F00850200810E006B08E
:100410000ED006800550085C0AE00A0E0A6EFDDE6A
:1004200085DF0850015C03E108C001F001D00690AF
:10043000C6EF02F0F86AD09EEA6AE96AB8960C0E36
:10044000AF6EA20EAC6E900EAB6EC150C00B0F091A
:10045000C16E070EB46E076AF19EFAD6086A08509C
:10046000D1DD082A006E00509EA8FED7AD6E230E87
:10047000085CF5E1086A0850DFDD082A006E0050CC
:100480009EA8FED7AD6E1F0E085CF5E1086A085005
:10049000EBDD082A006E00509EA8FED7AD6E260E3A
:1004A000085CF5E1086A0850FBDD082A006E005080
:1004B0009EA8FED7AD6E210E085CF5E1086A0850D3
:1004C00008DE082A006E00509EA8FED7AD6E160EFC
:1004D000085CF5E1086A085010DE082A006E00503A
:1004E0009EA8FED7AD6E0F0E085CF5E10D0E9EA81E
:1004F000FED7AD6E0A0E9EA8FED7AD6E086A0850F4
:100500000CDE082A006E00509EA8FED7AD6E2E0E9F
:10051000085CF5E1086A085020DE082A006E0050E9
:100520009EA8FED7AD6E230E085CF5E1086A085060
:100530002EDE082A006E096ED5DE0E0E085CF7E18D
:10054000086A085034DE082A006E096ECBDE0D0EF4
:10055000085CF7E1040E086EFA0E0A6E5EDE082EE5
:10056000FBD7086A085032DE000904E0082A096E49
:10057000B9DEF8D7086A085032DE082A006E096E24
:10058000B1DE080E085CF7E106903BD701C005F02C
:1005900006A020D007500F0815E2076A010E0A6E68
:1005A000020E0B6E8FDE086A085026DE082A006EE7
:1005B000096E98DE100E085CF7E1010E0A6E020E5D
:1005C0000B6E80DE05C009F08DDE05509EA8FED7BB
:0A05D000AD6E072A0690D9D703008C
:020000040030CA
:0E000000000C1E1E008381000FC00FE00F4099
:00000001FF
;PIC18F4550
